{"abi":[{"type":"receive","stateMutability":"payable"},{"type":"function","name":"BASIS_POINTS","inputs":[],"outputs":[{"name":"","type":"uint256","internalType":"uint256"}],"stateMutability":"view"},{"type":"function","name":"addVersion","inputs":[{"name":"_ipfsId","type":"string","internalType":"string"}],"outputs":[],"stateMutability":"nonpayable"},{"type":"function","name":"config","inputs":[],"outputs":[{"name":"initialMintPrice","type":"uint256","internalType":"uint256"},{"name":"minSecondaryMintPrice","type":"uint256","internalType":"uint256"},{"name":"secondaryMintFeeBps","type":"uint256","internalType":"uint256"},{"name":"tradingFeeBps","type":"uint256","internalType":"uint256"}],"stateMutability":"view"},{"type":"function","name":"creator","inputs":[],"outputs":[{"name":"","type":"address","internalType":"address"}],"stateMutability":"view"},{"type":"function","name":"factory","inputs":[],"outputs":[{"name":"","type":"address","internalType":"address"}],"stateMutability":"view"},{"type":"function","name":"getConfig","inputs":[],"outputs":[{"name":"","type":"tuple","internalType":"struct Config.ConfigData","components":[{"name":"initialMintPrice","type":"uint256","internalType":"uint256"},{"name":"minSecondaryMintPrice","type":"uint256","internalType":"uint256"},{"name":"secondaryMintFeeBps","type":"uint256","internalType":"uint256"},{"name":"tradingFeeBps","type":"uint256","internalType":"uint256"}]}],"stateMutability":"view"},{"type":"function","name":"initialize","inputs":[{"name":"_creator","type":"address","internalType":"address"},{"name":"_tokenId","type":"uint256","internalType":"uint256"},{"name":"_title","type":"string","internalType":"string"},{"name":"_tagline","type":"string","internalType":"string"},{"name":"_initialIpfsId","type":"string","internalType":"string"},{"name":"_config","type":"tuple","internalType":"struct Config.ConfigData","components":[{"name":"initialMintPrice","type":"uint256","internalType":"uint256"},{"name":"minSecondaryMintPrice","type":"uint256","internalType":"uint256"},{"name":"secondaryMintFeeBps","type":"uint256","internalType":"uint256"},{"name":"tradingFeeBps","type":"uint256","internalType":"uint256"}]}],"outputs":[],"stateMutability":"nonpayable"},{"type":"function","name":"latestVersion","inputs":[],"outputs":[{"name":"","type":"uint256","internalType":"uint256"}],"stateMutability":"view"},{"type":"function","name":"secondaryMintPrice","inputs":[],"outputs":[{"name":"","type":"uint256","internalType":"uint256"}],"stateMutability":"view"},{"type":"function","name":"setCreator","inputs":[{"name":"_newCreator","type":"address","internalType":"address"}],"outputs":[],"stateMutability":"nonpayable"},{"type":"function","name":"setSecondaryMintPrice","inputs":[{"name":"_price","type":"uint256","internalType":"uint256"}],"outputs":[],"stateMutability":"nonpayable"},{"type":"function","name":"setTradingCreatorFeeBps","inputs":[{"name":"_bps","type":"uint256","internalType":"uint256"}],"outputs":[],"stateMutability":"nonpayable"},{"type":"function","name":"tagline","inputs":[],"outputs":[{"name":"","type":"string","internalType":"string"}],"stateMutability":"view"},{"type":"function","name":"title","inputs":[],"outputs":[{"name":"","type":"string","internalType":"string"}],"stateMutability":"view"},{"type":"function","name":"tokenId","inputs":[],"outputs":[{"name":"","type":"uint256","internalType":"uint256"}],"stateMutability":"view"},{"type":"function","name":"tradingCreatorFeeBps","inputs":[],"outputs":[{"name":"","type":"uint256","internalType":"uint256"}],"stateMutability":"view"},{"type":"function","name":"updateMetadata","inputs":[{"name":"_title","type":"string","internalType":"string"},{"name":"_tagline","type":"string","internalType":"string"}],"outputs":[],"stateMutability":"nonpayable"},{"type":"function","name":"versions","inputs":[{"name":"","type":"uint256","internalType":"uint256"}],"outputs":[{"name":"","type":"string","internalType":"string"}],"stateMutability":"view"},{"type":"function","name":"withdraw","inputs":[{"name":"to","type":"address","internalType":"address"},{"name":"amount","type":"uint256","internalType":"uint256"}],"outputs":[],"stateMutability":"nonpayable"},{"type":"event","name":"CreatorUpdated","inputs":[{"name":"newCreator","type":"address","indexed":true,"internalType":"address"}],"anonymous":false},{"type":"event","name":"Initialized","inputs":[{"name":"version","type":"uint64","indexed":false,"internalType":"uint64"}],"anonymous":false},{"type":"event","name":"MetadataUpdated","inputs":[{"name":"title","type":"string","indexed":false,"internalType":"string"},{"name":"tagline","type":"string","indexed":false,"internalType":"string"}],"anonymous":false},{"type":"event","name":"SecondaryMintPriceUpdated","inputs":[{"name":"price","type":"uint256","indexed":false,"internalType":"uint256"}],"anonymous":false},{"type":"event","name":"StoreInitialized","inputs":[{"name":"tokenId","type":"uint256","indexed":true,"internalType":"uint256"},{"name":"creator","type":"address","indexed":true,"internalType":"address"},{"name":"title","type":"string","indexed":false,"internalType":"string"},{"name":"tagline","type":"string","indexed":false,"internalType":"string"}],"anonymous":false},{"type":"event","name":"TradingCreatorFeeBpsUpdated","inputs":[{"name":"bps","type":"uint256","indexed":false,"internalType":"uint256"}],"anonymous":false},{"type":"event","name":"VersionAdded","inputs":[{"name":"versionId","type":"uint256","indexed":true,"internalType":"uint256"},{"name":"ipfsId","type":"string","indexed":false,"internalType":"string"}],"anonymous":false},{"type":"event","name":"Withdrawn","inputs":[{"name":"to","type":"address","indexed":true,"internalType":"address"},{"name":"amount","type":"uint256","indexed":false,"internalType":"uint256"}],"anonymous":false},{"type":"error","name":"CallerNotCreator","inputs":[]},{"type":"error","name":"EmptyIpfsId","inputs":[]},{"type":"error","name":"InsufficientBalance","inputs":[]},{"type":"error","name":"InvalidBps","inputs":[{"name":"bps","type":"uint256","internalType":"uint256"}]},{"type":"error","name":"InvalidCreatorAddress","inputs":[]},{"type":"error","name":"InvalidInitialization","inputs":[]},{"type":"error","name":"NotInitializing","inputs":[]},{"type":"error","name":"ReentrancyGuardReentrantCall","inputs":[]},{"type":"error","name":"TransferFailed","inputs":[]}],"bytecode":{"object":"0x6080604052348015600e575f5ffd5b5060016029601f603360201b60201c565b605c60201b60201c565b5f01819055506065565b5f7f9b779b17422d0df92223018b32b4d1fa46e071723d6817e2486d003becc55f005f1b905090565b5f819050919050565b611b9a806100725f395ff3fe608060405260043610610117575f3560e01c806379502c551161009f578063c07f47d411610063578063c07f47d414610377578063c3f909d4146103a1578063c45a0155146103cb578063e1f1c4a7146103f5578063f3fef3a31461041f5761011e565b806379502c55146102945780637b7bbdea146102c15780637d9e606e146102e957806387aee00e14610311578063aba62e1d1461034d5761011e565b80633f516018116100e65780633f516018146101c85780634a79d50c146101f057806356ce0e6c1461021a57806363367f4d146102425780636fedeca11461026c5761011e565b806302d05d3f1461012257806307b84b101461014c57806317d70f7c146101745780632ec0ea881461019e5761011e565b3661011e57005b5f5ffd5b34801561012d575f5ffd5b50610136610447565b6040516101439190611178565b60405180910390f35b348015610157575f5ffd5b50610172600480360381019061016d91906111d5565b61046c565b005b34801561017f575f5ffd5b50610188610533565b604051610195919061120f565b60405180910390f35b3480156101a9575f5ffd5b506101b2610539565b6040516101bf919061120f565b60405180910390f35b3480156101d3575f5ffd5b506101ee60048036038101906101e99190611252565b61053f565b005b3480156101fb575f5ffd5b506102046106b0565b60405161021191906112ed565b60405180910390f35b348015610225575f5ffd5b50610240600480360381019061023b9190611439565b61073c565b005b34801561024d575f5ffd5b5061025661081f565b60405161026391906112ed565b60405180910390f35b348015610277575f5ffd5b50610292600480360381019061028d91906114af565b6108ab565b005b34801561029f575f5ffd5b506102a86109e0565b6040516102b894939291906114f6565b60405180910390f35b3480156102cc575f5ffd5b506102e760048036038101906102e291906115b2565b6109fc565b005b3480156102f4575f5ffd5b5061030f600480360381019061030a91906111d5565b610d07565b005b34801561031c575f5ffd5b50610337600480360381019061033291906111d5565b610e15565b60405161034491906112ed565b60405180910390f35b348015610358575f5ffd5b50610361610eb0565b60405161036e919061120f565b60405180910390f35b348015610382575f5ffd5b5061038b610eb6565b604051610398919061120f565b60405180910390f35b3480156103ac575f5ffd5b506103b5610ebc565b6040516103c291906116f2565b60405180910390f35b3480156103d6575f5ffd5b506103df610efc565b6040516103ec9190611178565b60405180910390f35b348015610400575f5ffd5b50610409610f21565b604051610416919061120f565b60405180910390f35b34801561042a575f5ffd5b506104456004803603810190610440919061170b565b610f27565b005b60065f9054906101000a900473ffffffffffffffffffffffffffffffffffffffff1681565b60065f9054906101000a900473ffffffffffffffffffffffffffffffffffffffff1673ffffffffffffffffffffffffffffffffffffffff163373ffffffffffffffffffffffffffffffffffffffff16146104f2576040517f821fd71000000000000000000000000000000000000000000000000000000000815260040160405180910390fd5b80600b819055507f70c0bb25bc2d2754993f0db467528f774a824da04ff22ec9b3d958ab1ea9b09281604051610528919061120f565b60405180910390a150565b60045481565b600c5481565b60065f9054906101000a900473ffffffffffffffffffffffffffffffffffffffff1673ffffffffffffffffffffffffffffffffffffffff163373ffffffffffffffffffffffffffffffffffffffff16146105c5576040517f821fd71000000000000000000000000000000000000000000000000000000000815260040160405180910390fd5b5f73ffffffffffffffffffffffffffffffffffffffff168173ffffffffffffffffffffffffffffffffffffffff160361062a576040517f52a7e56200000000000000000000000000000000000000000000000000000000815260040160405180910390fd5b8060065f6101000a81548173ffffffffffffffffffffffffffffffffffffffff021916908373ffffffffffffffffffffffffffffffffffffffff1602179055508073ffffffffffffffffffffffffffffffffffffffff167f40ce16136d64bc46500073cc9655e1b0b622a8a3023a5b4a35ea71b2dc4a24b360405160405180910390a250565b600780546106bd90611776565b80601f01602080910402602001604051908101604052809291908181526020018280546106e990611776565b80156107345780601f1061070b57610100808354040283529160200191610734565b820191905f5260205f20905b81548152906001019060200180831161071757829003601f168201915b505050505081565b60065f9054906101000a900473ffffffffffffffffffffffffffffffffffffffff1673ffffffffffffffffffffffffffffffffffffffff163373ffffffffffffffffffffffffffffffffffffffff16146107c2576040517f821fd71000000000000000000000000000000000000000000000000000000000815260040160405180910390fd5b81600790816107d19190611946565b5080600890816107e19190611946565b507f30f5c4b652f95e2a697bda3258896c421eee4f29adce8fe38060f47f7aed91ad8282604051610813929190611a15565b60405180910390a15050565b6008805461082c90611776565b80601f016020809104026020016040519081016040528092919081815260200182805461085890611776565b80156108a35780601f1061087a576101008083540402835291602001916108a3565b820191905f5260205f20905b81548152906001019060200180831161088657829003601f168201915b505050505081565b60065f9054906101000a900473ffffffffffffffffffffffffffffffffffffffff1673ffffffffffffffffffffffffffffffffffffffff163373ffffffffffffffffffffffffffffffffffffffff1614610931576040517f821fd71000000000000000000000000000000000000000000000000000000000815260040160405180910390fd5b5f81510361096b576040517fb1e55e0100000000000000000000000000000000000000000000000000000000815260040160405180910390fd5b60095f81548092919061097d90611a77565b919050555080600a5f60095481526020019081526020015f2090816109a29190611946565b506009547f261a513052e78a3229ae66806bc29b373c37a3f79c06ee09a43f082fe955e49b826040516109d591906112ed565b60405180910390a250565b5f805f0154908060010154908060020154908060030154905084565b5f610a056110d9565b90505f815f0160089054906101000a900460ff161590505f825f015f9054906101000a900467ffffffffffffffff1690505f5f8267ffffffffffffffff16148015610a4d5750825b90505f60018367ffffffffffffffff16148015610a8057505f3073ffffffffffffffffffffffffffffffffffffffff163b145b905081158015610a8e575080155b15610ac5576040517ff92ee8a900000000000000000000000000000000000000000000000000000000815260040160405180910390fd5b6001855f015f6101000a81548167ffffffffffffffff021916908367ffffffffffffffff1602179055508315610b12576001855f0160086101000a81548160ff0219169083151502179055505b3360055f6101000a81548173ffffffffffffffffffffffffffffffffffffffff021916908373ffffffffffffffffffffffffffffffffffffffff160217905550855f5f820151815f01556020820151816001015560408201518160020155606082015181600301559050508a60065f6101000a81548173ffffffffffffffffffffffffffffffffffffffff021916908373ffffffffffffffffffffffffffffffffffffffff160217905550896004819055508860079081610bd39190611946565b508760089081610be39190611946565b505f87511115610c4f57600160098190555086600a5f600181526020019081526020015f209081610c149190611946565b5060017f261a513052e78a3229ae66806bc29b373c37a3f79c06ee09a43f082fe955e49b88604051610c4691906112ed565b60405180910390a25b8a73ffffffffffffffffffffffffffffffffffffffff168a7fb380191af46e4e5b28a1cda275ad0add630e90d7a7bb6b0946e4196ae9ca4d3c8b8b604051610c98929190611a15565b60405180910390a38315610cfa575f855f0160086101000a81548160ff0219169083151502179055507fc7f505b2f371ae2175ee4913f4499e1f2633a7b5936321eed1cdaeb6115181d26001604051610cf19190611b0a565b60405180910390a15b5050505050505050505050565b60065f9054906101000a900473ffffffffffffffffffffffffffffffffffffffff1673ffffffffffffffffffffffffffffffffffffffff163373ffffffffffffffffffffffffffffffffffffffff1614610d8d576040517f821fd71000000000000000000000000000000000000000000000000000000000815260040160405180910390fd5b612710811115610dd457806040517f2e109e9f000000000000000000000000000000000000000000000000000000008152600401610dcb919061120f565b60405180910390fd5b80600c819055507f05b6872ccb6623666ce1e65614b60779f3717fe5389c1f01eb09b5b99730c7fc81604051610e0a919061120f565b60405180910390a150565b600a602052805f5260405f205f915090508054610e3190611776565b80601f0160208091040260200160405190810160405280929190818152602001828054610e5d90611776565b8015610ea85780601f10610e7f57610100808354040283529160200191610ea8565b820191905f5260205f20905b815481529060010190602001808311610e8b57829003601f168201915b505050505081565b600b5481565b60095481565b610ec4611115565b5f6040518060800160405290815f82015481526020016001820154815260200160028201548152602001600382015481525050905090565b60055f9054906101000a900473ffffffffffffffffffffffffffffffffffffffff1681565b61271081565b60065f9054906101000a900473ffffffffffffffffffffffffffffffffffffffff1673ffffffffffffffffffffffffffffffffffffffff163373ffffffffffffffffffffffffffffffffffffffff1614610fad576040517f821fd71000000000000000000000000000000000000000000000000000000000815260040160405180910390fd5b80471015610fe7576040517ff4d678b800000000000000000000000000000000000000000000000000000000815260040160405180910390fd5b5f8273ffffffffffffffffffffffffffffffffffffffff168260405161100c90611b50565b5f6040518083038185875af1925050503d805f8114611046576040519150601f19603f3d011682016040523d82523d5f602084013e61104b565b606091505b5050905080611086576040517f90b8ec1800000000000000000000000000000000000000000000000000000000815260040160405180910390fd5b8273ffffffffffffffffffffffffffffffffffffffff167f7084f5476618d8e60b11ef0d7d3f06914655adb8793e28ff7f018d4c76d505d5836040516110cc919061120f565b60405180910390a2505050565b5f5f6110e36110ec565b90508091505090565b5f7ff0c57e16840df040f15088dc2f81fe391c3923bec73e23a9662efc9c229c6a005f1b905090565b60405180608001604052805f81526020015f81526020015f81526020015f81525090565b5f73ffffffffffffffffffffffffffffffffffffffff82169050919050565b5f61116282611139565b9050919050565b61117281611158565b82525050565b5f60208201905061118b5f830184611169565b92915050565b5f604051905090565b5f5ffd5b5f5ffd5b5f819050919050565b6111b4816111a2565b81146111be575f5ffd5b50565b5f813590506111cf816111ab565b92915050565b5f602082840312156111ea576111e961119a565b5b5f6111f7848285016111c1565b91505092915050565b611209816111a2565b82525050565b5f6020820190506112225f830184611200565b92915050565b61123181611158565b811461123b575f5ffd5b50565b5f8135905061124c81611228565b92915050565b5f602082840312156112675761126661119a565b5b5f6112748482850161123e565b91505092915050565b5f81519050919050565b5f82825260208201905092915050565b8281835e5f83830152505050565b5f601f19601f8301169050919050565b5f6112bf8261127d565b6112c98185611287565b93506112d9818560208601611297565b6112e2816112a5565b840191505092915050565b5f6020820190508181035f83015261130581846112b5565b905092915050565b5f5ffd5b5f5ffd5b7f4e487b71000000000000000000000000000000000000000000000000000000005f52604160045260245ffd5b61134b826112a5565b810181811067ffffffffffffffff8211171561136a57611369611315565b5b80604052505050565b5f61137c611191565b90506113888282611342565b919050565b5f67ffffffffffffffff8211156113a7576113a6611315565b5b6113b0826112a5565b9050602081019050919050565b828183375f83830152505050565b5f6113dd6113d88461138d565b611373565b9050828152602081018484840111156113f9576113f8611311565b5b6114048482856113bd565b509392505050565b5f82601f8301126114205761141f61130d565b5b81356114308482602086016113cb565b91505092915050565b5f5f6040838503121561144f5761144e61119a565b5b5f83013567ffffffffffffffff81111561146c5761146b61119e565b5b6114788582860161140c565b925050602083013567ffffffffffffffff8111156114995761149861119e565b5b6114a58582860161140c565b9150509250929050565b5f602082840312156114c4576114c361119a565b5b5f82013567ffffffffffffffff8111156114e1576114e061119e565b5b6114ed8482850161140c565b91505092915050565b5f6080820190506115095f830187611200565b6115166020830186611200565b6115236040830185611200565b6115306060830184611200565b95945050505050565b5f5ffd5b5f6080828403121561155257611551611539565b5b61155c6080611373565b90505f61156b848285016111c1565b5f83015250602061157e848285016111c1565b6020830152506040611592848285016111c1565b60408301525060606115a6848285016111c1565b60608301525092915050565b5f5f5f5f5f5f61012087890312156115cd576115cc61119a565b5b5f6115da89828a0161123e565b96505060206115eb89828a016111c1565b955050604087013567ffffffffffffffff81111561160c5761160b61119e565b5b61161889828a0161140c565b945050606087013567ffffffffffffffff8111156116395761163861119e565b5b61164589828a0161140c565b935050608087013567ffffffffffffffff8111156116665761166561119e565b5b61167289828a0161140c565b92505060a061168389828a0161153d565b9150509295509295509295565b611699816111a2565b82525050565b608082015f8201516116b35f850182611690565b5060208201516116c66020850182611690565b5060408201516116d96040850182611690565b5060608201516116ec6060850182611690565b50505050565b5f6080820190506117055f83018461169f565b92915050565b5f5f604083850312156117215761172061119a565b5b5f61172e8582860161123e565b925050602061173f858286016111c1565b9150509250929050565b7f4e487b71000000000000000000000000000000000000000000000000000000005f52602260045260245ffd5b5f600282049050600182168061178d57607f821691505b6020821081036117a05761179f611749565b5b50919050565b5f819050815f5260205f209050919050565b5f6020601f8301049050919050565b5f82821b905092915050565b5f600883026118027fffffffffffffffffffffffffffffffffffffffffffffffffffffffffffffffff826117c7565b61180c86836117c7565b95508019841693508086168417925050509392505050565b5f819050919050565b5f61184761184261183d846111a2565b611824565b6111a2565b9050919050565b5f819050919050565b6118608361182d565b61187461186c8261184e565b8484546117d3565b825550505050565b5f5f905090565b61188b61187c565b611896818484611857565b505050565b5b818110156118b9576118ae5f82611883565b60018101905061189c565b5050565b601f8211156118fe576118cf816117a6565b6118d8846117b8565b810160208510156118e7578190505b6118fb6118f3856117b8565b83018261189b565b50505b505050565b5f82821c905092915050565b5f61191e5f1984600802611903565b1980831691505092915050565b5f611936838361190f565b9150826002028217905092915050565b61194f8261127d565b67ffffffffffffffff81111561196857611967611315565b5b6119728254611776565b61197d8282856118bd565b5f60209050601f8311600181146119ae575f841561199c578287015190505b6119a6858261192b565b865550611a0d565b601f1984166119bc866117a6565b5f5b828110156119e3578489015182556001820191506020850194506020810190506119be565b86831015611a0057848901516119fc601f89168261190f565b8355505b6001600288020188555050505b505050505050565b5f6040820190508181035f830152611a2d81856112b5565b90508181036020830152611a4181846112b5565b90509392505050565b7f4e487b71000000000000000000000000000000000000000000000000000000005f52601160045260245ffd5b5f611a81826111a2565b91507fffffffffffffffffffffffffffffffffffffffffffffffffffffffffffffffff8203611ab357611ab2611a4a565b5b600182019050919050565b5f819050919050565b5f67ffffffffffffffff82169050919050565b5f611af4611aef611aea84611abe565b611824565b611ac7565b9050919050565b611b0481611ada565b82525050565b5f602082019050611b1d5f830184611afb565b92915050565b5f81905092915050565b50565b5f611b3b5f83611b23565b9150611b4682611b2d565b5f82019050919050565b5f611b5a82611b30565b915081905091905056fea26469706673582212208735a711fe67902b8b548e123f3fc80fff4f8e88093a1f48440363f39f6eba7b64736f6c634300081c0033","linkReferences":{}},"methodIdentifiers":{"BASIS_POINTS()":"e1f1c4a7","addVersion(string)":"6fedeca1","config()":"79502c55","creator()":"02d05d3f","factory()":"c45a0155","getConfig()":"c3f909d4","initialize(address,uint256,string,string,string,(uint256,uint256,uint256,uint256))":"7b7bbdea","latestVersion()":"c07f47d4","secondaryMintPrice()":"aba62e1d","setCreator(address)":"3f516018","setSecondaryMintPrice(uint256)":"07b84b10","setTradingCreatorFeeBps(uint256)":"7d9e606e","tagline()":"63367f4d","title()":"4a79d50c","tokenId()":"17d70f7c","tradingCreatorFeeBps()":"2ec0ea88","updateMetadata(string,string)":"56ce0e6c","versions(uint256)":"87aee00e","withdraw(address,uint256)":"f3fef3a3"},"id":48}