{"abi":[{"type":"function","name":"BASIS_POINTS","inputs":[],"outputs":[{"name":"","type":"uint256","internalType":"uint256"}],"stateMutability":"view"},{"type":"function","name":"config","inputs":[],"outputs":[{"name":"initialMintPrice","type":"uint256","internalType":"uint256"},{"name":"minSecondaryMintPrice","type":"uint256","internalType":"uint256"},{"name":"secondaryMintFeeBps","type":"uint256","internalType":"uint256"},{"name":"tradingFeeBps","type":"uint256","internalType":"uint256"}],"stateMutability":"view"},{"type":"function","name":"getConfig","inputs":[],"outputs":[{"name":"","type":"tuple","internalType":"struct Config.ConfigData","components":[{"name":"initialMintPrice","type":"uint256","internalType":"uint256"},{"name":"minSecondaryMintPrice","type":"uint256","internalType":"uint256"},{"name":"secondaryMintFeeBps","type":"uint256","internalType":"uint256"},{"name":"tradingFeeBps","type":"uint256","internalType":"uint256"}]}],"stateMutability":"view"}],"bytecode":{"object":"0x6080604052348015600e575f5ffd5b5061024b8061001c5f395ff3fe608060405234801561000f575f5ffd5b506004361061003f575f3560e01c806379502c5514610043578063c3f909d414610064578063e1f1c4a714610082575b5f5ffd5b61004b6100a0565b60405161005b949392919061013e565b60405180910390f35b61006c6100bc565b60405161007991906101e3565b60405180910390f35b61008a6100fc565b60405161009791906101fc565b60405180910390f35b5f805f0154908060010154908060020154908060030154905084565b6100c4610102565b5f6040518060800160405290815f82015481526020016001820154815260200160028201548152602001600382015481525050905090565b61271081565b60405180608001604052805f81526020015f81526020015f81526020015f81525090565b5f819050919050565b61013881610126565b82525050565b5f6080820190506101515f83018761012f565b61015e602083018661012f565b61016b604083018561012f565b610178606083018461012f565b95945050505050565b61018a81610126565b82525050565b608082015f8201516101a45f850182610181565b5060208201516101b76020850182610181565b5060408201516101ca6040850182610181565b5060608201516101dd6060850182610181565b50505050565b5f6080820190506101f65f830184610190565b92915050565b5f60208201905061020f5f83018461012f565b9291505056fea264697066735822122007a191252e9e9ec153ad70e7eabbdff9121deaab41a7fe9669ad26c4dc18c9e964736f6c634300081c0033","linkReferences":{}},"methodIdentifiers":{"BASIS_POINTS()":"e1f1c4a7","config()":"79502c55","getConfig()":"c3f909d4"},"id":45}