{"abi":[{"type":"constructor","inputs":[{"name":"initialOwner","type":"address","internalType":"address"}],"stateMutability":"nonpayable"},{"type":"function","name":"BASIS_POINTS","inputs":[],"outputs":[{"name":"","type":"uint256","internalType":"uint256"}],"stateMutability":"view"},{"type":"function","name":"config","inputs":[],"outputs":[{"name":"initialMintPrice","type":"uint256","internalType":"uint256"},{"name":"minSecondaryMintPrice","type":"uint256","internalType":"uint256"},{"name":"secondaryMintFeeBps","type":"uint256","internalType":"uint256"},{"name":"tradingFeeBps","type":"uint256","internalType":"uint256"}],"stateMutability":"view"},{"type":"function","name":"getConfig","inputs":[],"outputs":[{"name":"","type":"tuple","internalType":"struct Config.ConfigData","components":[{"name":"initialMintPrice","type":"uint256","internalType":"uint256"},{"name":"minSecondaryMintPrice","type":"uint256","internalType":"uint256"},{"name":"secondaryMintFeeBps","type":"uint256","internalType":"uint256"},{"name":"tradingFeeBps","type":"uint256","internalType":"uint256"}]}],"stateMutability":"view"},{"type":"function","name":"owner","inputs":[],"outputs":[{"name":"","type":"address","internalType":"address"}],"stateMutability":"view"},{"type":"function","name":"renounceOwnership","inputs":[],"outputs":[],"stateMutability":"nonpayable"},{"type":"function","name":"setConfig","inputs":[{"name":"_config","type":"tuple","internalType":"struct Config.ConfigData","components":[{"name":"initialMintPrice","type":"uint256","internalType":"uint256"},{"name":"minSecondaryMintPrice","type":"uint256","internalType":"uint256"},{"name":"secondaryMintFeeBps","type":"uint256","internalType":"uint256"},{"name":"tradingFeeBps","type":"uint256","internalType":"uint256"}]}],"outputs":[],"stateMutability":"nonpayable"},{"type":"function","name":"transferOwnership","inputs":[{"name":"newOwner","type":"address","internalType":"address"}],"outputs":[],"stateMutability":"nonpayable"},{"type":"event","name":"ConfigUpdated","inputs":[{"name":"newConfig","type":"tuple","indexed":false,"internalType":"struct Config.ConfigData","components":[{"name":"initialMintPrice","type":"uint256","internalType":"uint256"},{"name":"minSecondaryMintPrice","type":"uint256","internalType":"uint256"},{"name":"secondaryMintFeeBps","type":"uint256","internalType":"uint256"},{"name":"tradingFeeBps","type":"uint256","internalType":"uint256"}]}],"anonymous":false},{"type":"event","name":"OwnershipTransferred","inputs":[{"name":"previousOwner","type":"address","indexed":true,"internalType":"address"},{"name":"newOwner","type":"address","indexed":true,"internalType":"address"}],"anonymous":false},{"type":"error","name":"InvalidBps","inputs":[]},{"type":"error","name":"OwnableInvalidOwner","inputs":[{"name":"owner","type":"address","internalType":"address"}]},{"type":"error","name":"OwnableUnauthorizedAccount","inputs":[{"name":"account","type":"address","internalType":"address"}]}],"bytecode":{"object":"0x608060405234801561000f575f5ffd5b506040516109fd3803806109fd833981810160405281019061003191906101d9565b805f73ffffffffffffffffffffffffffffffffffffffff168173ffffffffffffffffffffffffffffffffffffffff16036100a2575f6040517f1e4fbdf70000000000000000000000000000000000000000000000000000000081526004016100999190610213565b60405180910390fd5b6100b1816100b860201b60201c565b505061022c565b5f60045f9054906101000a900473ffffffffffffffffffffffffffffffffffffffff1690508160045f6101000a81548173ffffffffffffffffffffffffffffffffffffffff021916908373ffffffffffffffffffffffffffffffffffffffff1602179055508173ffffffffffffffffffffffffffffffffffffffff168173ffffffffffffffffffffffffffffffffffffffff167f8be0079c531659141344cd1fd0a4f28419497f9722a3daafe3b4186f6b6457e060405160405180910390a35050565b5f5ffd5b5f73ffffffffffffffffffffffffffffffffffffffff82169050919050565b5f6101a88261017f565b9050919050565b6101b88161019e565b81146101c2575f5ffd5b50565b5f815190506101d3816101af565b92915050565b5f602082840312156101ee576101ed61017b565b5b5f6101fb848285016101c5565b91505092915050565b61020d8161019e565b82525050565b5f6020820190506102265f830184610204565b92915050565b6107c4806102395f395ff3fe608060405234801561000f575f5ffd5b506004361061007b575f3560e01c80638da5cb5b116100595780638da5cb5b146100c6578063c3f909d4146100e4578063e1f1c4a714610102578063f2fde38b146101205761007b565b80631f44305a1461007f578063715018a61461009b57806379502c55146100a5575b5f5ffd5b610099600480360381019061009491906105d0565b61013c565b005b6100a36101f9565b005b6100ad61020c565b6040516100bd949392919061060a565b60405180910390f35b6100ce610228565b6040516100db919061068c565b60405180910390f35b6100ec610250565b6040516100f99190610707565b60405180910390f35b61010a610290565b6040516101179190610720565b60405180910390f35b61013a60048036038101906101359190610763565b610296565b005b61014461031a565b6127108160400151118061015d57506127108160600151115b15610194576040517fc6cc5d7f00000000000000000000000000000000000000000000000000000000815260040160405180910390fd5b805f5f820151815f01556020820151816001015560408201518160020155606082015181600301559050507f9359e69ea224934f7cfbc6e6336e1a65f96eb6607c898f94589b52f4806eece8816040516101ee9190610707565b60405180910390a150565b61020161031a565b61020a5f6103a1565b565b5f805f0154908060010154908060020154908060030154905084565b5f60045f9054906101000a900473ffffffffffffffffffffffffffffffffffffffff16905090565b61025861046b565b5f6040518060800160405290815f82015481526020016001820154815260200160028201548152602001600382015481525050905090565b61271081565b61029e61031a565b5f73ffffffffffffffffffffffffffffffffffffffff168173ffffffffffffffffffffffffffffffffffffffff160361030e575f6040517f1e4fbdf7000000000000000000000000000000000000000000000000000000008152600401610305919061068c565b60405180910390fd5b610317816103a1565b50565b610322610464565b73ffffffffffffffffffffffffffffffffffffffff16610340610228565b73ffffffffffffffffffffffffffffffffffffffff161461039f57610363610464565b6040517f118cdaa7000000000000000000000000000000000000000000000000000000008152600401610396919061068c565b60405180910390fd5b565b5f60045f9054906101000a900473ffffffffffffffffffffffffffffffffffffffff1690508160045f6101000a81548173ffffffffffffffffffffffffffffffffffffffff021916908373ffffffffffffffffffffffffffffffffffffffff1602179055508173ffffffffffffffffffffffffffffffffffffffff168173ffffffffffffffffffffffffffffffffffffffff167f8be0079c531659141344cd1fd0a4f28419497f9722a3daafe3b4186f6b6457e060405160405180910390a35050565b5f33905090565b60405180608001604052805f81526020015f81526020015f81526020015f81525090565b5f604051905090565b5f5ffd5b5f5ffd5b5f601f19601f8301169050919050565b7f4e487b71000000000000000000000000000000000000000000000000000000005f52604160045260245ffd5b6104e6826104a0565b810181811067ffffffffffffffff82111715610505576105046104b0565b5b80604052505050565b5f61051761048f565b905061052382826104dd565b919050565b5f819050919050565b61053a81610528565b8114610544575f5ffd5b50565b5f8135905061055581610531565b92915050565b5f608082840312156105705761056f61049c565b5b61057a608061050e565b90505f61058984828501610547565b5f83015250602061059c84828501610547565b60208301525060406105b084828501610547565b60408301525060606105c484828501610547565b60608301525092915050565b5f608082840312156105e5576105e4610498565b5b5f6105f28482850161055b565b91505092915050565b61060481610528565b82525050565b5f60808201905061061d5f8301876105fb565b61062a60208301866105fb565b61063760408301856105fb565b61064460608301846105fb565b95945050505050565b5f73ffffffffffffffffffffffffffffffffffffffff82169050919050565b5f6106768261064d565b9050919050565b6106868161066c565b82525050565b5f60208201905061069f5f83018461067d565b92915050565b6106ae81610528565b82525050565b608082015f8201516106c85f8501826106a5565b5060208201516106db60208501826106a5565b5060408201516106ee60408501826106a5565b50606082015161070160608501826106a5565b50505050565b5f60808201905061071a5f8301846106b4565b92915050565b5f6020820190506107335f8301846105fb565b92915050565b6107428161066c565b811461074c575f5ffd5b50565b5f8135905061075d81610739565b92915050565b5f6020828403121561077857610777610498565b5b5f6107858482850161074f565b9150509291505056fea2646970667358221220ed462320c1e4288bbf235e8aa767d3ce3750af067fc85ae44912dff86c105cb664736f6c634300081c0033","linkReferences":{}},"methodIdentifiers":{"BASIS_POINTS()":"e1f1c4a7","config()":"79502c55","getConfig()":"c3f909d4","owner()":"8da5cb5b","renounceOwnership()":"715018a6","setConfig((uint256,uint256,uint256,uint256))":"1f44305a","transferOwnership(address)":"f2fde38b"},"id":46}