{"abi":[{"type":"constructor","inputs":[{"name":"_pinStoreImplementation","type":"address","internalType":"address"},{"name":"_config","type":"tuple","internalType":"struct Config.ConfigData","components":[{"name":"initialMintPrice","type":"uint256","internalType":"uint256"},{"name":"minSecondaryMintPrice","type":"uint256","internalType":"uint256"},{"name":"secondaryMintFeeBps","type":"uint256","internalType":"uint256"},{"name":"tradingFeeBps","type":"uint256","internalType":"uint256"}]}],"stateMutability":"nonpayable"},{"type":"function","name":"BASIS_POINTS","inputs":[],"outputs":[{"name":"","type":"uint256","internalType":"uint256"}],"stateMutability":"view"},{"type":"function","name":"balanceOf","inputs":[{"name":"account","type":"address","internalType":"address"},{"name":"id","type":"uint256","internalType":"uint256"}],"outputs":[{"name":"","type":"uint256","internalType":"uint256"}],"stateMutability":"view"},{"type":"function","name":"balanceOfBatch","inputs":[{"name":"accounts","type":"address[]","internalType":"address[]"},{"name":"ids","type":"uint256[]","internalType":"uint256[]"}],"outputs":[{"name":"","type":"uint256[]","internalType":"uint256[]"}],"stateMutability":"view"},{"type":"function","name":"config","inputs":[],"outputs":[{"name":"initialMintPrice","type":"uint256","internalType":"uint256"},{"name":"minSecondaryMintPrice","type":"uint256","internalType":"uint256"},{"name":"secondaryMintFeeBps","type":"uint256","internalType":"uint256"},{"name":"tradingFeeBps","type":"uint256","internalType":"uint256"}],"stateMutability":"view"},{"type":"function","name":"exists","inputs":[{"name":"id","type":"uint256","internalType":"uint256"}],"outputs":[{"name":"","type":"bool","internalType":"bool"}],"stateMutability":"view"},{"type":"function","name":"getConfig","inputs":[],"outputs":[{"name":"","type":"tuple","internalType":"struct Config.ConfigData","components":[{"name":"initialMintPrice","type":"uint256","internalType":"uint256"},{"name":"minSecondaryMintPrice","type":"uint256","internalType":"uint256"},{"name":"secondaryMintFeeBps","type":"uint256","internalType":"uint256"},{"name":"tradingFeeBps","type":"uint256","internalType":"uint256"}]}],"stateMutability":"view"},{"type":"function","name":"isApprovedForAll","inputs":[{"name":"account","type":"address","internalType":"address"},{"name":"operator","type":"address","internalType":"address"}],"outputs":[{"name":"","type":"bool","internalType":"bool"}],"stateMutability":"view"},{"type":"function","name":"mint","inputs":[{"name":"to","type":"address","internalType":"address"},{"name":"title","type":"string","internalType":"string"},{"name":"tagline","type":"string","internalType":"string"},{"name":"initialIpfsId","type":"string","internalType":"string"},{"name":"data","type":"bytes","internalType":"bytes"}],"outputs":[],"stateMutability":"payable"},{"type":"function","name":"nextTokenId","inputs":[],"outputs":[{"name":"","type":"uint256","internalType":"uint256"}],"stateMutability":"view"},{"type":"function","name":"owner","inputs":[],"outputs":[{"name":"","type":"address","internalType":"address"}],"stateMutability":"view"},{"type":"function","name":"pinStoreImplementation","inputs":[],"outputs":[{"name":"","type":"address","internalType":"address"}],"stateMutability":"view"},{"type":"function","name":"pinStores","inputs":[{"name":"","type":"uint256","internalType":"uint256"}],"outputs":[{"name":"","type":"address","internalType":"address"}],"stateMutability":"view"},{"type":"function","name":"renounceOwnership","inputs":[],"outputs":[],"stateMutability":"nonpayable"},{"type":"function","name":"safeBatchTransferFrom","inputs":[{"name":"from","type":"address","internalType":"address"},{"name":"to","type":"address","internalType":"address"},{"name":"ids","type":"uint256[]","internalType":"uint256[]"},{"name":"values","type":"uint256[]","internalType":"uint256[]"},{"name":"data","type":"bytes","internalType":"bytes"}],"outputs":[],"stateMutability":"nonpayable"},{"type":"function","name":"safeTransferFrom","inputs":[{"name":"from","type":"address","internalType":"address"},{"name":"to","type":"address","internalType":"address"},{"name":"id","type":"uint256","internalType":"uint256"},{"name":"value","type":"uint256","internalType":"uint256"},{"name":"data","type":"bytes","internalType":"bytes"}],"outputs":[],"stateMutability":"nonpayable"},{"type":"function","name":"secondaryMint","inputs":[{"name":"tokenId","type":"uint256","internalType":"uint256"},{"name":"amount","type":"uint256","internalType":"uint256"},{"name":"data","type":"bytes","internalType":"bytes"}],"outputs":[],"stateMutability":"payable"},{"type":"function","name":"setApprovalForAll","inputs":[{"name":"operator","type":"address","internalType":"address"},{"name":"approved","type":"bool","internalType":"bool"}],"outputs":[],"stateMutability":"nonpayable"},{"type":"function","name":"setConfig","inputs":[{"name":"_config","type":"tuple","internalType":"struct Config.ConfigData","components":[{"name":"initialMintPrice","type":"uint256","internalType":"uint256"},{"name":"minSecondaryMintPrice","type":"uint256","internalType":"uint256"},{"name":"secondaryMintFeeBps","type":"uint256","internalType":"uint256"},{"name":"tradingFeeBps","type":"uint256","internalType":"uint256"}]}],"outputs":[],"stateMutability":"nonpayable"},{"type":"function","name":"setPinStoreImplementation","inputs":[{"name":"_newImpl","type":"address","internalType":"address"}],"outputs":[],"stateMutability":"nonpayable"},{"type":"function","name":"supportsInterface","inputs":[{"name":"interfaceId","type":"bytes4","internalType":"bytes4"}],"outputs":[{"name":"","type":"bool","internalType":"bool"}],"stateMutability":"view"},{"type":"function","name":"totalSupply","inputs":[],"outputs":[{"name":"","type":"uint256","internalType":"uint256"}],"stateMutability":"view"},{"type":"function","name":"totalSupply","inputs":[{"name":"id","type":"uint256","internalType":"uint256"}],"outputs":[{"name":"","type":"uint256","internalType":"uint256"}],"stateMutability":"view"},{"type":"function","name":"transferOwnership","inputs":[{"name":"newOwner","type":"address","internalType":"address"}],"outputs":[],"stateMutability":"nonpayable"},{"type":"function","name":"uri","inputs":[{"name":"_tokenId","type":"uint256","internalType":"uint256"}],"outputs":[{"name":"","type":"string","internalType":"string"}],"stateMutability":"view"},{"type":"function","name":"withdraw","inputs":[],"outputs":[],"stateMutability":"nonpayable"},{"type":"event","name":"ApprovalForAll","inputs":[{"name":"account","type":"address","indexed":true,"internalType":"address"},{"name":"operator","type":"address","indexed":true,"internalType":"address"},{"name":"approved","type":"bool","indexed":false,"internalType":"bool"}],"anonymous":false},{"type":"event","name":"ConfigUpdated","inputs":[{"name":"newConfig","type":"tuple","indexed":false,"internalType":"struct Config.ConfigData","components":[{"name":"initialMintPrice","type":"uint256","internalType":"uint256"},{"name":"minSecondaryMintPrice","type":"uint256","internalType":"uint256"},{"name":"secondaryMintFeeBps","type":"uint256","internalType":"uint256"},{"name":"tradingFeeBps","type":"uint256","internalType":"uint256"}]}],"anonymous":false},{"type":"event","name":"Mint","inputs":[{"name":"tokenId","type":"uint256","indexed":true,"internalType":"uint256"},{"name":"creator","type":"address","indexed":true,"internalType":"address"},{"name":"storeAddress","type":"address","indexed":false,"internalType":"address"},{"name":"title","type":"string","indexed":false,"internalType":"string"}],"anonymous":false},{"type":"event","name":"OwnershipTransferred","inputs":[{"name":"previousOwner","type":"address","indexed":true,"internalType":"address"},{"name":"newOwner","type":"address","indexed":true,"internalType":"address"}],"anonymous":false},{"type":"event","name":"SecondaryMint","inputs":[{"name":"tokenId","type":"uint256","indexed":true,"internalType":"uint256"},{"name":"to","type":"address","indexed":true,"internalType":"address"},{"name":"amount","type":"uint256","indexed":false,"internalType":"uint256"},{"name":"totalPrice","type":"uint256","indexed":false,"internalType":"uint256"},{"name":"fee","type":"uint256","indexed":false,"internalType":"uint256"}],"anonymous":false},{"type":"event","name":"TransferBatch","inputs":[{"name":"operator","type":"address","indexed":true,"internalType":"address"},{"name":"from","type":"address","indexed":true,"internalType":"address"},{"name":"to","type":"address","indexed":true,"internalType":"address"},{"name":"ids","type":"uint256[]","indexed":false,"internalType":"uint256[]"},{"name":"values","type":"uint256[]","indexed":false,"internalType":"uint256[]"}],"anonymous":false},{"type":"event","name":"TransferSingle","inputs":[{"name":"operator","type":"address","indexed":true,"internalType":"address"},{"name":"from","type":"address","indexed":true,"internalType":"address"},{"name":"to","type":"address","indexed":true,"internalType":"address"},{"name":"id","type":"uint256","indexed":false,"internalType":"uint256"},{"name":"value","type":"uint256","indexed":false,"internalType":"uint256"}],"anonymous":false},{"type":"event","name":"URI","inputs":[{"name":"value","type":"string","indexed":false,"internalType":"string"},{"name":"id","type":"uint256","indexed":true,"internalType":"uint256"}],"anonymous":false},{"type":"event","name":"Withdrawn","inputs":[{"name":"to","type":"address","indexed":true,"internalType":"address"},{"name":"amount","type":"uint256","indexed":false,"internalType":"uint256"}],"anonymous":false},{"type":"error","name":"ERC1155InsufficientBalance","inputs":[{"name":"sender","type":"address","internalType":"address"},{"name":"balance","type":"uint256","internalType":"uint256"},{"name":"needed","type":"uint256","internalType":"uint256"},{"name":"tokenId","type":"uint256","internalType":"uint256"}]},{"type":"error","name":"ERC1155InvalidApprover","inputs":[{"name":"approver","type":"address","internalType":"address"}]},{"type":"error","name":"ERC1155InvalidArrayLength","inputs":[{"name":"idsLength","type":"uint256","internalType":"uint256"},{"name":"valuesLength","type":"uint256","internalType":"uint256"}]},{"type":"error","name":"ERC1155InvalidOperator","inputs":[{"name":"operator","type":"address","internalType":"address"}]},{"type":"error","name":"ERC1155InvalidReceiver","inputs":[{"name":"receiver","type":"address","internalType":"address"}]},{"type":"error","name":"ERC1155InvalidSender","inputs":[{"name":"sender","type":"address","internalType":"address"}]},{"type":"error","name":"ERC1155MissingApprovalForAll","inputs":[{"name":"operator","type":"address","internalType":"address"},{"name":"owner","type":"address","internalType":"address"}]},{"type":"error","name":"FailedDeployment","inputs":[]},{"type":"error","name":"InsufficientBalance","inputs":[{"name":"balance","type":"uint256","internalType":"uint256"},{"name":"needed","type":"uint256","internalType":"uint256"}]},{"type":"error","name":"InsufficientPayment","inputs":[{"name":"required","type":"uint256","internalType":"uint256"},{"name":"sent","type":"uint256","internalType":"uint256"}]},{"type":"error","name":"InvalidBps","inputs":[]},{"type":"error","name":"InvalidImplementation","inputs":[]},{"type":"error","name":"NoBalanceToWithdraw","inputs":[]},{"type":"error","name":"OwnableInvalidOwner","inputs":[{"name":"owner","type":"address","internalType":"address"}]},{"type":"error","name":"OwnableUnauthorizedAccount","inputs":[{"name":"account","type":"address","internalType":"address"}]},{"type":"error","name":"ReentrancyGuardReentrantCall","inputs":[]},{"type":"error","name":"StoreNotFound","inputs":[{"name":"tokenId","type":"uint256","internalType":"uint256"}]},{"type":"error","name":"TransferFailed","inputs":[]},{"type":"error","name":"WithdrawalFailed","inputs":[]}],"bytecode":{"object":"0x608060405234801561000f575f5ffd5b50604051613fe6380380613fe683398181016040528101906100319190610414565b338060405180602001604052805f8152506100518161017160201b60201c565b50600161007061006561018460201b60201c565b6101ad60201b60201c565b5f01819055505f73ffffffffffffffffffffffffffffffffffffffff168173ffffffffffffffffffffffffffffffffffffffff16036100e6575f6040517f1e4fbdf70000000000000000000000000000000000000000000000000000000081526004016100dd9190610461565b60405180910390fd5b6100f5816101b660201b60201c565b505081600b5f6101000a81548173ffffffffffffffffffffffffffffffffffffffff021916908373ffffffffffffffffffffffffffffffffffffffff160217905550805f5f820151815f01556020820151816001015560408201518160020155606082015181600301559050506001600a819055505050610750565b80600690816101809190610681565b5050565b5f7f9b779b17422d0df92223018b32b4d1fa46e071723d6817e2486d003becc55f005f1b905090565b5f819050919050565b5f60095f9054906101000a900473ffffffffffffffffffffffffffffffffffffffff1690508160095f6101000a81548173ffffffffffffffffffffffffffffffffffffffff021916908373ffffffffffffffffffffffffffffffffffffffff1602179055508173ffffffffffffffffffffffffffffffffffffffff168173ffffffffffffffffffffffffffffffffffffffff167f8be0079c531659141344cd1fd0a4f28419497f9722a3daafe3b4186f6b6457e060405160405180910390a35050565b5f604051905090565b5f5ffd5b5f73ffffffffffffffffffffffffffffffffffffffff82169050919050565b5f6102af82610286565b9050919050565b6102bf816102a5565b81146102c9575f5ffd5b50565b5f815190506102da816102b6565b92915050565b5f5ffd5b5f601f19601f8301169050919050565b7f4e487b71000000000000000000000000000000000000000000000000000000005f52604160045260245ffd5b61032a826102e4565b810181811067ffffffffffffffff82111715610349576103486102f4565b5b80604052505050565b5f61035b610279565b90506103678282610321565b919050565b5f819050919050565b61037e8161036c565b8114610388575f5ffd5b50565b5f8151905061039981610375565b92915050565b5f608082840312156103b4576103b36102e0565b5b6103be6080610352565b90505f6103cd8482850161038b565b5f8301525060206103e08482850161038b565b60208301525060406103f48482850161038b565b60408301525060606104088482850161038b565b60608301525092915050565b5f5f60a0838503121561042a57610429610282565b5b5f610437858286016102cc565b92505060206104488582860161039f565b9150509250929050565b61045b816102a5565b82525050565b5f6020820190506104745f830184610452565b92915050565b5f81519050919050565b7f4e487b71000000000000000000000000000000000000000000000000000000005f52602260045260245ffd5b5f60028204905060018216806104c857607f821691505b6020821081036104db576104da610484565b5b50919050565b5f819050815f5260205f209050919050565b5f6020601f8301049050919050565b5f82821b905092915050565b5f6008830261053d7fffffffffffffffffffffffffffffffffffffffffffffffffffffffffffffffff82610502565b6105478683610502565b95508019841693508086168417925050509392505050565b5f819050919050565b5f61058261057d6105788461036c565b61055f565b61036c565b9050919050565b5f819050919050565b61059b83610568565b6105af6105a782610589565b84845461050e565b825550505050565b5f5f905090565b6105c66105b7565b6105d1818484610592565b505050565b5b818110156105f4576105e95f826105be565b6001810190506105d7565b5050565b601f8211156106395761060a816104e1565b610613846104f3565b81016020851015610622578190505b61063661062e856104f3565b8301826105d6565b50505b505050565b5f82821c905092915050565b5f6106595f198460080261063e565b1980831691505092915050565b5f610671838361064a565b9150826002028217905092915050565b61068a8261047a565b67ffffffffffffffff8111156106a3576106a26102f4565b5b6106ad82546104b1565b6106b88282856105f8565b5f60209050601f8311600181146106e9575f84156106d7578287015190505b6106e18582610666565b865550610748565b601f1984166106f7866104e1565b5f5b8281101561071e578489015182556001820191506020850194506020810190506106f9565b8683101561073b5784890151610737601f89168261064a565b8355505b6001600288020188555050505b505050505050565b6138898061075d5f395ff3fe608060405260043610610164575f3560e01c8063715018a6116100d0578063c3f909d411610089578063e985e9c511610063578063e985e9c514610511578063efb5ca2f1461054d578063f242432a14610575578063f2fde38b1461059d57610164565b8063c3f909d414610481578063d24ef800146104ab578063e1f1c4a7146104e757610164565b8063715018a61461038657806375794a3c1461039c57806379502c55146103c65780638da5cb5b146103f3578063a22cb4651461041d578063bd85b0391461044557610164565b80632eb2c2d6116101225780632eb2c2d61461028a5780633ccfd60b146102b25780634618968b146102c85780634e1273f4146102e45780634f558e7914610320578063608b3aa51461035c57610164565b8062fdd58e146101685780630169ce1e146101a457806301ffc9a7146101c05780630e89341c146101fc57806318160ddd146102385780631f44305a14610262575b5f5ffd5b348015610173575f5ffd5b5061018e6004803603810190610189919061262a565b6105c5565b60405161019b9190612677565b60405180910390f35b6101be60048036038101906101b991906127cc565b61061b565b005b3480156101cb575f5ffd5b506101e660048036038101906101e1919061288d565b610943565b6040516101f391906128d2565b60405180910390f35b348015610207575f5ffd5b50610222600480360381019061021d91906128eb565b610a24565b60405161022f9190612976565b60405180910390f35b348015610243575f5ffd5b5061024c610ab0565b6040516102599190612677565b60405180910390f35b34801561026d575f5ffd5b5061028860048036038101906102839190612a0f565b610ab9565b005b348015610295575f5ffd5b506102b060048036038101906102ab9190612afe565b610b76565b005b3480156102bd575f5ffd5b506102c6610b9b565b005b6102e260048036038101906102dd9190612c67565b610cdf565b005b3480156102ef575f5ffd5b5061030a60048036038101906103059190612e0e565b610eac565b6040516103179190612f3b565b60405180910390f35b34801561032b575f5ffd5b50610346600480360381019061034191906128eb565b610fb6565b60405161035391906128d2565b60405180910390f35b348015610367575f5ffd5b50610370610fc9565b60405161037d9190612f6a565b60405180910390f35b348015610391575f5ffd5b5061039a610fee565b005b3480156103a7575f5ffd5b506103b0611001565b6040516103bd9190612677565b60405180910390f35b3480156103d1575f5ffd5b506103da611007565b6040516103ea9493929190612f83565b60405180910390f35b3480156103fe575f5ffd5b50610407611023565b6040516104149190612f6a565b60405180910390f35b348015610428575f5ffd5b50610443600480360381019061043e9190612ff0565b61104b565b005b348015610450575f5ffd5b5061046b600480360381019061046691906128eb565b611061565b6040516104789190612677565b60405180910390f35b34801561048c575f5ffd5b5061049561107b565b6040516104a29190613081565b60405180910390f35b3480156104b6575f5ffd5b506104d160048036038101906104cc91906128eb565b6110bb565b6040516104de9190612f6a565b60405180910390f35b3480156104f2575f5ffd5b506104fb6110eb565b6040516105089190612677565b60405180910390f35b34801561051c575f5ffd5b506105376004803603810190610532919061309a565b6110f1565b60405161054491906128d2565b60405180910390f35b348015610558575f5ffd5b50610573600480360381019061056e91906130d8565b61117f565b005b348015610580575f5ffd5b5061059b60048036038101906105969190613103565b61122f565b005b3480156105a8575f5ffd5b506105c360048036038101906105be91906130d8565b611254565b005b5f60045f8381526020019081526020015f205f8473ffffffffffffffffffffffffffffffffffffffff1673ffffffffffffffffffffffffffffffffffffffff1681526020019081526020015f2054905092915050565b6106236112d8565b5f600c5f8581526020019081526020015f205f9054906101000a900473ffffffffffffffffffffffffffffffffffffffff1690505f73ffffffffffffffffffffffffffffffffffffffff168173ffffffffffffffffffffffffffffffffffffffff16036106c757836040517f63c9011e0000000000000000000000000000000000000000000000000000000081526004016106be9190612677565b60405180910390fd5b5f8190505f8173ffffffffffffffffffffffffffffffffffffffff1663c3f909d46040518163ffffffff1660e01b8152600401608060405180830381865afa158015610715573d5f5f3e3d5ffd5b505050506040513d601f19601f82011682018060405250810190610739919061321f565b90505f8273ffffffffffffffffffffffffffffffffffffffff1663aba62e1d6040518163ffffffff1660e01b8152600401602060405180830381865afa158015610785573d5f5f3e3d5ffd5b505050506040513d601f19601f820116820180604052508101906107a9919061324a565b90505f86826107b891906132a2565b9050803410156108015780346040517fb99e2ab70000000000000000000000000000000000000000000000000000000081526004016107f89291906132e3565b60405180910390fd5b5f61271084604001513461081591906132a2565b61081f9190613337565b90505f813461082e9190613367565b90505f8673ffffffffffffffffffffffffffffffffffffffff1682604051610855906133c7565b5f6040518083038185875af1925050503d805f811461088f576040519150601f19603f3d011682016040523d82523d5f602084013e610894565b606091505b50509050806108cf576040517f90b8ec1800000000000000000000000000000000000000000000000000000000815260040160405180910390fd5b6108db338c8c8c6112fa565b3373ffffffffffffffffffffffffffffffffffffffff168b7fefbd43a39f856ddfc4583dfdc5eb9636ea4223f6c0f0de211a3a5a028640512f8c8787604051610926939291906133db565b60405180910390a3505050505050505061093e61138f565b505050565b5f7fd9b67a26000000000000000000000000000000000000000000000000000000007bffffffffffffffffffffffffffffffffffffffffffffffffffffffff1916827bffffffffffffffffffffffffffffffffffffffffffffffffffffffff19161480610a0d57507f0e89341c000000000000000000000000000000000000000000000000000000007bffffffffffffffffffffffffffffffffffffffffffffffffffffffff1916827bffffffffffffffffffffffffffffffffffffffffffffffffffffffff1916145b80610a1d5750610a1c826113a9565b5b9050919050565b60605f600c5f8481526020019081526020015f205f9054906101000a900473ffffffffffffffffffffffffffffffffffffffff1690505f73ffffffffffffffffffffffffffffffffffffffff168173ffffffffffffffffffffffffffffffffffffffff1614610a9e57610a9683611412565b915050610aab565b610aa783611412565b9150505b919050565b5f600854905090565b610ac16114a4565b61271081604001511180610ada57506127108160600151115b15610b11576040517fc6cc5d7f00000000000000000000000000000000000000000000000000000000815260040160405180910390fd5b805f5f820151815f01556020820151816001015560408201518160020155606082015181600301559050507f9359e69ea224934f7cfbc6e6336e1a65f96eb6607c898f94589b52f4806eece881604051610b6b9190613081565b60405180910390a150565b610b87610b8161152b565b86611532565b610b9485858585856115bd565b5050505050565b610ba36114a4565b5f4790505f8103610be0576040517fbbd8170800000000000000000000000000000000000000000000000000000000815260040160405180910390fd5b5f610be9611023565b73ffffffffffffffffffffffffffffffffffffffff1682604051610c0c906133c7565b5f6040518083038185875af1925050503d805f8114610c46576040519150601f19603f3d011682016040523d82523d5f602084013e610c4b565b606091505b5050905080610c86576040517f27fcd9d100000000000000000000000000000000000000000000000000000000815260040160405180910390fd5b610c8e611023565b73ffffffffffffffffffffffffffffffffffffffff167f7084f5476618d8e60b11ef0d7d3f06914655adb8793e28ff7f018d4c76d505d583604051610cd39190612677565b60405180910390a25050565b610ce76112d8565b5f5f0154341015610d34575f5f0154346040517fb99e2ab7000000000000000000000000000000000000000000000000000000008152600401610d2b9291906132e3565b60405180910390fd5b5f600a549050600a5f815480929190610d4c90613410565b91905055505f610d7c600b5f9054906101000a900473ffffffffffffffffffffffffffffffffffffffff166116b1565b90508073ffffffffffffffffffffffffffffffffffffffff16637b7bbdea88848989895f6040518763ffffffff1660e01b8152600401610dc196959493929190613505565b5f604051808303815f87803b158015610dd8575f5ffd5b505af1158015610dea573d5f5f3e3d5ffd5b5050505080600c5f8481526020019081526020015f205f6101000a81548173ffffffffffffffffffffffffffffffffffffffff021916908373ffffffffffffffffffffffffffffffffffffffff160217905550610e4a87836001866112fa565b8673ffffffffffffffffffffffffffffffffffffffff16827f339743f11e9dcaf746294591519e875091620103f402830007483b1a80b03a528389604051610e9392919061357a565b60405180910390a35050610ea561138f565b5050505050565b60608151835114610ef857815183516040517f5b059991000000000000000000000000000000000000000000000000000000008152600401610eef9291906132e3565b60405180910390fd5b5f835167ffffffffffffffff811115610f1457610f136126a8565b5b604051908082528060200260200182016040528015610f425781602001602082028036833780820191505090505b5090505f5f90505b8451811015610fab57610f81610f6982876116c390919063ffffffff16565b610f7c83876116d690919063ffffffff16565b6105c5565b828281518110610f9457610f936135a8565b5b602002602001018181525050806001019050610f4a565b508091505092915050565b5f5f610fc183611061565b119050919050565b600b5f9054906101000a900473ffffffffffffffffffffffffffffffffffffffff1681565b610ff66114a4565b610fff5f6116e9565b565b600a5481565b5f805f0154908060010154908060020154908060030154905084565b5f60095f9054906101000a900473ffffffffffffffffffffffffffffffffffffffff16905090565b61105d61105661152b565b83836117ac565b5050565b5f60075f8381526020019081526020015f20549050919050565b611083612568565b5f6040518060800160405290815f82015481526020016001820154815260200160028201548152602001600382015481525050905090565b600c602052805f5260405f205f915054906101000a900473ffffffffffffffffffffffffffffffffffffffff1681565b61271081565b5f60055f8473ffffffffffffffffffffffffffffffffffffffff1673ffffffffffffffffffffffffffffffffffffffff1681526020019081526020015f205f8373ffffffffffffffffffffffffffffffffffffffff1673ffffffffffffffffffffffffffffffffffffffff1681526020019081526020015f205f9054906101000a900460ff16905092915050565b6111876114a4565b5f73ffffffffffffffffffffffffffffffffffffffff168173ffffffffffffffffffffffffffffffffffffffff16036111ec576040517f68155f9a00000000000000000000000000000000000000000000000000000000815260040160405180910390fd5b80600b5f6101000a81548173ffffffffffffffffffffffffffffffffffffffff021916908373ffffffffffffffffffffffffffffffffffffffff16021790555050565b61124061123a61152b565b86611532565b61124d8585858585611985565b5050505050565b61125c6114a4565b5f73ffffffffffffffffffffffffffffffffffffffff168173ffffffffffffffffffffffffffffffffffffffff16036112cc575f6040517f1e4fbdf70000000000000000000000000000000000000000000000000000000081526004016112c39190612f6a565b60405180910390fd5b6112d5816116e9565b50565b6112e0611a8b565b60026112f26112ed611acc565b611af5565b5f0181905550565b5f73ffffffffffffffffffffffffffffffffffffffff168473ffffffffffffffffffffffffffffffffffffffff160361136a575f6040517f57f447ce0000000000000000000000000000000000000000000000000000000081526004016113619190612f6a565b60405180910390fd5b5f5f6113768585611afe565b915091506113875f87848487611b2e565b505050505050565b60016113a161139c611acc565b611af5565b5f0181905550565b5f7f01ffc9a7000000000000000000000000000000000000000000000000000000007bffffffffffffffffffffffffffffffffffffffffffffffffffffffff1916827bffffffffffffffffffffffffffffffffffffffffffffffffffffffff1916149050919050565b60606006805461142190613602565b80601f016020809104026020016040519081016040528092919081815260200182805461144d90613602565b80156114985780601f1061146f57610100808354040283529160200191611498565b820191905f5260205f20905b81548152906001019060200180831161147b57829003601f168201915b50505050509050919050565b6114ac61152b565b73ffffffffffffffffffffffffffffffffffffffff166114ca611023565b73ffffffffffffffffffffffffffffffffffffffff1614611529576114ed61152b565b6040517f118cdaa70000000000000000000000000000000000000000000000000000000081526004016115209190612f6a565b60405180910390fd5b565b5f33905090565b8173ffffffffffffffffffffffffffffffffffffffff168173ffffffffffffffffffffffffffffffffffffffff1614158015611575575061157381836110f1565b155b156115b95781816040517fe237d9220000000000000000000000000000000000000000000000000000000081526004016115b0929190613632565b60405180910390fd5b5050565b5f73ffffffffffffffffffffffffffffffffffffffff168473ffffffffffffffffffffffffffffffffffffffff160361162d575f6040517f57f447ce0000000000000000000000000000000000000000000000000000000081526004016116249190612f6a565b60405180910390fd5b5f73ffffffffffffffffffffffffffffffffffffffff168573ffffffffffffffffffffffffffffffffffffffff160361169d575f6040517f01a835140000000000000000000000000000000000000000000000000000000081526004016116949190612f6a565b60405180910390fd5b6116aa8585858585611b2e565b5050505050565b5f6116bc825f611bda565b9050919050565b5f60208202602084010151905092915050565b5f60208202602084010151905092915050565b5f60095f9054906101000a900473ffffffffffffffffffffffffffffffffffffffff1690508160095f6101000a81548173ffffffffffffffffffffffffffffffffffffffff021916908373ffffffffffffffffffffffffffffffffffffffff1602179055508173ffffffffffffffffffffffffffffffffffffffff168173ffffffffffffffffffffffffffffffffffffffff167f8be0079c531659141344cd1fd0a4f28419497f9722a3daafe3b4186f6b6457e060405160405180910390a35050565b5f73ffffffffffffffffffffffffffffffffffffffff168373ffffffffffffffffffffffffffffffffffffffff160361181c575f6040517f3e31884e0000000000000000000000000000000000000000000000000000000081526004016118139190612f6a565b60405180910390fd5b5f73ffffffffffffffffffffffffffffffffffffffff168273ffffffffffffffffffffffffffffffffffffffff160361188c575f6040517fced3e1000000000000000000000000000000000000000000000000000000000081526004016118839190612f6a565b60405180910390fd5b8060055f8573ffffffffffffffffffffffffffffffffffffffff1673ffffffffffffffffffffffffffffffffffffffff1681526020019081526020015f205f8473ffffffffffffffffffffffffffffffffffffffff1673ffffffffffffffffffffffffffffffffffffffff1681526020019081526020015f205f6101000a81548160ff0219169083151502179055508173ffffffffffffffffffffffffffffffffffffffff168373ffffffffffffffffffffffffffffffffffffffff167f17307eab39ab6107e8899845ad3d59bd9653f200f220920489ca2b5937696c318360405161197891906128d2565b60405180910390a3505050565b5f73ffffffffffffffffffffffffffffffffffffffff168473ffffffffffffffffffffffffffffffffffffffff16036119f5575f6040517f57f447ce0000000000000000000000000000000000000000000000000000000081526004016119ec9190612f6a565b60405180910390fd5b5f73ffffffffffffffffffffffffffffffffffffffff168573ffffffffffffffffffffffffffffffffffffffff1603611a65575f6040517f01a83514000000000000000000000000000000000000000000000000000000008152600401611a5c9190612f6a565b60405180910390fd5b5f5f611a718585611afe565b91509150611a828787848487611b2e565b50505050505050565b611a93611ccf565b15611aca576040517f3ee5aeb500000000000000000000000000000000000000000000000000000000815260040160405180910390fd5b565b5f7f9b779b17422d0df92223018b32b4d1fa46e071723d6817e2486d003becc55f005f1b905090565b5f819050919050565b60608060405191506001825283602083015260408201905060018152826020820152604081016040529250929050565b611b3a85858585611ceb565b5f73ffffffffffffffffffffffffffffffffffffffff168473ffffffffffffffffffffffffffffffffffffffff1614611bd3575f611b7661152b565b90506001845103611bc2575f611b955f866116d690919063ffffffff16565b90505f611bab5f866116d690919063ffffffff16565b9050611bbb838989858589611e74565b5050611bd1565b611bd0818787878787612023565b5b505b5050505050565b5f81471015611c225747826040517fcf479181000000000000000000000000000000000000000000000000000000008152600401611c199291906132e3565b60405180910390fd5b763d602d80600a3d3981f3363d3d373d3d3d363d730000008360601b60e81c175f526e5af43d82803e903d91602b57fd5bf38360781b176020526037600983f090505f73ffffffffffffffffffffffffffffffffffffffff168173ffffffffffffffffffffffffffffffffffffffff1603611cc9576040517fb06ebf3d00000000000000000000000000000000000000000000000000000000815260040160405180910390fd5b92915050565b5f6002611ce2611cdd611acc565b611af5565b5f015414905090565b611cf7848484846121d2565b5f73ffffffffffffffffffffffffffffffffffffffff168473ffffffffffffffffffffffffffffffffffffffff1603611dc0575f5f90505f5f90505b8351811015611da5575f611d5082856116d690919063ffffffff16565b90508060075f611d6985896116d690919063ffffffff16565b81526020019081526020015f205f828254611d849190613659565b925050819055508083611d979190613659565b925050806001019050611d33565b508060085f828254611db79190613659565b92505081905550505b5f73ffffffffffffffffffffffffffffffffffffffff168373ffffffffffffffffffffffffffffffffffffffff1603611e6e575f5f90505f5f90505b8351811015611e5c575f611e1982856116d690919063ffffffff16565b90508060075f611e3285896116d690919063ffffffff16565b81526020019081526020015f205f8282540392505081905550808301925050806001019050611dfc565b508060085f8282540392505081905550505b50505050565b5f8473ffffffffffffffffffffffffffffffffffffffff163b111561201b578373ffffffffffffffffffffffffffffffffffffffff1663f23a6e6187878686866040518663ffffffff1660e01b8152600401611ed49594939291906136de565b6020604051808303815f875af1925050508015611f0f57506040513d601f19601f82011682018060405250810190611f0c919061374a565b60015b611f90573d805f8114611f3d576040519150601f19603f3d011682016040523d82523d5f602084013e611f42565b606091505b505f815103611f8857846040517f57f447ce000000000000000000000000000000000000000000000000000000008152600401611f7f9190612f6a565b60405180910390fd5b805160208201fd5b63f23a6e6160e01b7bffffffffffffffffffffffffffffffffffffffffffffffffffffffff1916817bffffffffffffffffffffffffffffffffffffffffffffffffffffffff19161461201957846040517f57f447ce0000000000000000000000000000000000000000000000000000000081526004016120109190612f6a565b60405180910390fd5b505b505050505050565b5f8473ffffffffffffffffffffffffffffffffffffffff163b11156121ca578373ffffffffffffffffffffffffffffffffffffffff1663bc197c8187878686866040518663ffffffff1660e01b8152600401612083959493929190613775565b6020604051808303815f875af19250505080156120be57506040513d601f19601f820116820180604052508101906120bb919061374a565b60015b61213f573d805f81146120ec576040519150601f19603f3d011682016040523d82523d5f602084013e6120f1565b606091505b505f81510361213757846040517f57f447ce00000000000000000000000000000000000000000000000000000000815260040161212e9190612f6a565b60405180910390fd5b805160208201fd5b63bc197c8160e01b7bffffffffffffffffffffffffffffffffffffffffffffffffffffffff1916817bffffffffffffffffffffffffffffffffffffffffffffffffffffffff1916146121c857846040517f57f447ce0000000000000000000000000000000000000000000000000000000081526004016121bf9190612f6a565b60405180910390fd5b505b505050505050565b805182511461221c57815181516040517f5b0599910000000000000000000000000000000000000000000000000000000081526004016122139291906132e3565b60405180910390fd5b5f61222561152b565b90505f5f90505b8351811015612427575f61224982866116d690919063ffffffff16565b90505f61225f83866116d690919063ffffffff16565b90505f73ffffffffffffffffffffffffffffffffffffffff168873ffffffffffffffffffffffffffffffffffffffff1614612384575f60045f8481526020019081526020015f205f8a73ffffffffffffffffffffffffffffffffffffffff1673ffffffffffffffffffffffffffffffffffffffff1681526020019081526020015f205490508181101561232f57888183856040517f03dee4c500000000000000000000000000000000000000000000000000000000815260040161232694939291906137db565b60405180910390fd5b81810360045f8581526020019081526020015f205f8b73ffffffffffffffffffffffffffffffffffffffff1673ffffffffffffffffffffffffffffffffffffffff1681526020019081526020015f2081905550505b5f73ffffffffffffffffffffffffffffffffffffffff168773ffffffffffffffffffffffffffffffffffffffff161461241a578060045f8481526020019081526020015f205f8973ffffffffffffffffffffffffffffffffffffffff1673ffffffffffffffffffffffffffffffffffffffff1681526020019081526020015f205f8282546124129190613659565b925050819055505b505080600101905061222c565b5060018351036124e2575f6124455f856116d690919063ffffffff16565b90505f61245b5f856116d690919063ffffffff16565b90508573ffffffffffffffffffffffffffffffffffffffff168773ffffffffffffffffffffffffffffffffffffffff168473ffffffffffffffffffffffffffffffffffffffff167fc3d58168c5ae7397731d063d5bbf3d657854427343f4c083240f7aacaa2d0f6285856040516124d39291906132e3565b60405180910390a45050612561565b8373ffffffffffffffffffffffffffffffffffffffff168573ffffffffffffffffffffffffffffffffffffffff168273ffffffffffffffffffffffffffffffffffffffff167f4a39dc06d4c0dbc64b70af90fd698a233a518aa5d07e595d983b8c0526c8f7fb868660405161255892919061381e565b60405180910390a45b5050505050565b60405180608001604052805f81526020015f81526020015f81526020015f81525090565b5f604051905090565b5f5ffd5b5f5ffd5b5f73ffffffffffffffffffffffffffffffffffffffff82169050919050565b5f6125c68261259d565b9050919050565b6125d6816125bc565b81146125e0575f5ffd5b50565b5f813590506125f1816125cd565b92915050565b5f819050919050565b612609816125f7565b8114612613575f5ffd5b50565b5f8135905061262481612600565b92915050565b5f5f604083850312156126405761263f612595565b5b5f61264d858286016125e3565b925050602061265e85828601612616565b9150509250929050565b612671816125f7565b82525050565b5f60208201905061268a5f830184612668565b92915050565b5f5ffd5b5f5ffd5b5f601f19601f8301169050919050565b7f4e487b71000000000000000000000000000000000000000000000000000000005f52604160045260245ffd5b6126de82612698565b810181811067ffffffffffffffff821117156126fd576126fc6126a8565b5b80604052505050565b5f61270f61258c565b905061271b82826126d5565b919050565b5f67ffffffffffffffff82111561273a576127396126a8565b5b61274382612698565b9050602081019050919050565b828183375f83830152505050565b5f61277061276b84612720565b612706565b90508281526020810184848401111561278c5761278b612694565b5b612797848285612750565b509392505050565b5f82601f8301126127b3576127b2612690565b5b81356127c384826020860161275e565b91505092915050565b5f5f5f606084860312156127e3576127e2612595565b5b5f6127f086828701612616565b935050602061280186828701612616565b925050604084013567ffffffffffffffff81111561282257612821612599565b5b61282e8682870161279f565b9150509250925092565b5f7fffffffff0000000000000000000000000000000000000000000000000000000082169050919050565b61286c81612838565b8114612876575f5ffd5b50565b5f8135905061288781612863565b92915050565b5f602082840312156128a2576128a1612595565b5b5f6128af84828501612879565b91505092915050565b5f8115159050919050565b6128cc816128b8565b82525050565b5f6020820190506128e55f8301846128c3565b92915050565b5f60208284031215612900576128ff612595565b5b5f61290d84828501612616565b91505092915050565b5f81519050919050565b5f82825260208201905092915050565b8281835e5f83830152505050565b5f61294882612916565b6129528185612920565b9350612962818560208601612930565b61296b81612698565b840191505092915050565b5f6020820190508181035f83015261298e818461293e565b905092915050565b5f5ffd5b5f608082840312156129af576129ae612996565b5b6129b96080612706565b90505f6129c884828501612616565b5f8301525060206129db84828501612616565b60208301525060406129ef84828501612616565b6040830152506060612a0384828501612616565b60608301525092915050565b5f60808284031215612a2457612a23612595565b5b5f612a318482850161299a565b91505092915050565b5f67ffffffffffffffff821115612a5457612a536126a8565b5b602082029050602081019050919050565b5f5ffd5b5f612a7b612a7684612a3a565b612706565b90508083825260208201905060208402830185811115612a9e57612a9d612a65565b5b835b81811015612ac75780612ab38882612616565b845260208401935050602081019050612aa0565b5050509392505050565b5f82601f830112612ae557612ae4612690565b5b8135612af5848260208601612a69565b91505092915050565b5f5f5f5f5f60a08688031215612b1757612b16612595565b5b5f612b24888289016125e3565b9550506020612b35888289016125e3565b945050604086013567ffffffffffffffff811115612b5657612b55612599565b5b612b6288828901612ad1565b935050606086013567ffffffffffffffff811115612b8357612b82612599565b5b612b8f88828901612ad1565b925050608086013567ffffffffffffffff811115612bb057612baf612599565b5b612bbc8882890161279f565b9150509295509295909350565b5f67ffffffffffffffff821115612be357612be26126a8565b5b612bec82612698565b9050602081019050919050565b5f612c0b612c0684612bc9565b612706565b905082815260208101848484011115612c2757612c26612694565b5b612c32848285612750565b509392505050565b5f82601f830112612c4e57612c4d612690565b5b8135612c5e848260208601612bf9565b91505092915050565b5f5f5f5f5f60a08688031215612c8057612c7f612595565b5b5f612c8d888289016125e3565b955050602086013567ffffffffffffffff811115612cae57612cad612599565b5b612cba88828901612c3a565b945050604086013567ffffffffffffffff811115612cdb57612cda612599565b5b612ce788828901612c3a565b935050606086013567ffffffffffffffff811115612d0857612d07612599565b5b612d1488828901612c3a565b925050608086013567ffffffffffffffff811115612d3557612d34612599565b5b612d418882890161279f565b9150509295509295909350565b5f67ffffffffffffffff821115612d6857612d676126a8565b5b602082029050602081019050919050565b5f612d8b612d8684612d4e565b612706565b90508083825260208201905060208402830185811115612dae57612dad612a65565b5b835b81811015612dd75780612dc388826125e3565b845260208401935050602081019050612db0565b5050509392505050565b5f82601f830112612df557612df4612690565b5b8135612e05848260208601612d79565b91505092915050565b5f5f60408385031215612e2457612e23612595565b5b5f83013567ffffffffffffffff811115612e4157612e40612599565b5b612e4d85828601612de1565b925050602083013567ffffffffffffffff811115612e6e57612e6d612599565b5b612e7a85828601612ad1565b9150509250929050565b5f81519050919050565b5f82825260208201905092915050565b5f819050602082019050919050565b612eb6816125f7565b82525050565b5f612ec78383612ead565b60208301905092915050565b5f602082019050919050565b5f612ee982612e84565b612ef38185612e8e565b9350612efe83612e9e565b805f5b83811015612f2e578151612f158882612ebc565b9750612f2083612ed3565b925050600181019050612f01565b5085935050505092915050565b5f6020820190508181035f830152612f538184612edf565b905092915050565b612f64816125bc565b82525050565b5f602082019050612f7d5f830184612f5b565b92915050565b5f608082019050612f965f830187612668565b612fa36020830186612668565b612fb06040830185612668565b612fbd6060830184612668565b95945050505050565b612fcf816128b8565b8114612fd9575f5ffd5b50565b5f81359050612fea81612fc6565b92915050565b5f5f6040838503121561300657613005612595565b5b5f613013858286016125e3565b925050602061302485828601612fdc565b9150509250929050565b608082015f8201516130425f850182612ead565b5060208201516130556020850182612ead565b5060408201516130686040850182612ead565b50606082015161307b6060850182612ead565b50505050565b5f6080820190506130945f83018461302e565b92915050565b5f5f604083850312156130b0576130af612595565b5b5f6130bd858286016125e3565b92505060206130ce858286016125e3565b9150509250929050565b5f602082840312156130ed576130ec612595565b5b5f6130fa848285016125e3565b91505092915050565b5f5f5f5f5f60a0868803121561311c5761311b612595565b5b5f613129888289016125e3565b955050602061313a888289016125e3565b945050604061314b88828901612616565b935050606061315c88828901612616565b925050608086013567ffffffffffffffff81111561317d5761317c612599565b5b6131898882890161279f565b9150509295509295909350565b5f815190506131a481612600565b92915050565b5f608082840312156131bf576131be612996565b5b6131c96080612706565b90505f6131d884828501613196565b5f8301525060206131eb84828501613196565b60208301525060406131ff84828501613196565b604083015250606061321384828501613196565b60608301525092915050565b5f6080828403121561323457613233612595565b5b5f613241848285016131aa565b91505092915050565b5f6020828403121561325f5761325e612595565b5b5f61326c84828501613196565b91505092915050565b7f4e487b71000000000000000000000000000000000000000000000000000000005f52601160045260245ffd5b5f6132ac826125f7565b91506132b7836125f7565b92508282026132c5816125f7565b915082820484148315176132dc576132db613275565b5b5092915050565b5f6040820190506132f65f830185612668565b6133036020830184612668565b9392505050565b7f4e487b71000000000000000000000000000000000000000000000000000000005f52601260045260245ffd5b5f613341826125f7565b915061334c836125f7565b92508261335c5761335b61330a565b5b828204905092915050565b5f613371826125f7565b915061337c836125f7565b925082820390508181111561339457613393613275565b5b92915050565b5f81905092915050565b50565b5f6133b25f8361339a565b91506133bd826133a4565b5f82019050919050565b5f6133d1826133a7565b9150819050919050565b5f6060820190506133ee5f830186612668565b6133fb6020830185612668565b6134086040830184612668565b949350505050565b5f61341a826125f7565b91507fffffffffffffffffffffffffffffffffffffffffffffffffffffffffffffffff820361344c5761344b613275565b5b600182019050919050565b5f815f1c9050919050565b5f819050919050565b5f61347d61347883613457565b613462565b9050919050565b608082015f5f83015490506134988161346b565b6134a45f860182612ead565b50600183015490506134b58161346b565b6134c26020860182612ead565b50600283015490506134d38161346b565b6134e06040860182612ead565b50600383015490506134f18161346b565b6134fe6060860182612ead565b5050505050565b5f610120820190506135195f830189612f5b565b6135266020830188612668565b8181036040830152613538818761293e565b9050818103606083015261354c818661293e565b90508181036080830152613560818561293e565b905061356f60a0830184613484565b979650505050505050565b5f60408201905061358d5f830185612f5b565b818103602083015261359f818461293e565b90509392505050565b7f4e487b71000000000000000000000000000000000000000000000000000000005f52603260045260245ffd5b7f4e487b71000000000000000000000000000000000000000000000000000000005f52602260045260245ffd5b5f600282049050600182168061361957607f821691505b60208210810361362c5761362b6135d5565b5b50919050565b5f6040820190506136455f830185612f5b565b6136526020830184612f5b565b9392505050565b5f613663826125f7565b915061366e836125f7565b925082820190508082111561368657613685613275565b5b92915050565b5f81519050919050565b5f82825260208201905092915050565b5f6136b08261368c565b6136ba8185613696565b93506136ca818560208601612930565b6136d381612698565b840191505092915050565b5f60a0820190506136f15f830188612f5b565b6136fe6020830187612f5b565b61370b6040830186612668565b6137186060830185612668565b818103608083015261372a81846136a6565b90509695505050505050565b5f8151905061374481612863565b92915050565b5f6020828403121561375f5761375e612595565b5b5f61376c84828501613736565b91505092915050565b5f60a0820190506137885f830188612f5b565b6137956020830187612f5b565b81810360408301526137a78186612edf565b905081810360608301526137bb8185612edf565b905081810360808301526137cf81846136a6565b90509695505050505050565b5f6080820190506137ee5f830187612f5b565b6137fb6020830186612668565b6138086040830185612668565b6138156060830184612668565b95945050505050565b5f6040820190508181035f8301526138368185612edf565b9050818103602083015261384a8184612edf565b9050939250505056fea2646970667358221220a075e2d5dc18b5154048abc84a5652e3bbfca434e662ceb7101f71224d1e8be364736f6c634300081c0033","linkReferences":{}},"methodIdentifiers":{"BASIS_POINTS()":"e1f1c4a7","balanceOf(address,uint256)":"00fdd58e","balanceOfBatch(address[],uint256[])":"4e1273f4","config()":"79502c55","exists(uint256)":"4f558e79","getConfig()":"c3f909d4","isApprovedForAll(address,address)":"e985e9c5","mint(address,string,string,string,bytes)":"4618968b","nextTokenId()":"75794a3c","owner()":"8da5cb5b","pinStoreImplementation()":"608b3aa5","pinStores(uint256)":"d24ef800","renounceOwnership()":"715018a6","safeBatchTransferFrom(address,address,uint256[],uint256[],bytes)":"2eb2c2d6","safeTransferFrom(address,address,uint256,uint256,bytes)":"f242432a","secondaryMint(uint256,uint256,bytes)":"0169ce1e","setApprovalForAll(address,bool)":"a22cb465","setConfig((uint256,uint256,uint256,uint256))":"1f44305a","setPinStoreImplementation(address)":"efb5ca2f","supportsInterface(bytes4)":"01ffc9a7","totalSupply()":"18160ddd","totalSupply(uint256)":"bd85b039","transferOwnership(address)":"f2fde38b","uri(uint256)":"0e89341c","withdraw()":"3ccfd60b"},"id":42}